{
  "_format": "hh-sol-artifact-1",
  "contractName": "MembershipNFT",
  "sourceName": "contracts/Membership/NFTMembership.sol",
  "abi": [
    {
      "inputs": [
        {
          "internalType": "string",
          "name": "_name",
          "type": "string"
        },
        {
          "internalType": "string",
          "name": "_symbol",
          "type": "string"
        },
        {
          "internalType": "string",
          "name": "baseTokenURI",
          "type": "string"
        },
        {
          "internalType": "bool",
          "name": "_allowMinting",
          "type": "bool"
        },
        {
          "internalType": "address",
          "name": "_chargeToken",
          "type": "address"
        },
        {
          "internalType": "address",
          "name": "_PortuDAO_Treasury",
          "type": "address"
        },
        {
          "internalType": "uint256",
          "name": "_fee",
          "type": "uint256"
        }
      ],
      "stateMutability": "nonpayable",
      "type": "constructor"
    },
    {
      "anonymous": false,
      "inputs": [
        {
          "indexed": true,
          "internalType": "address",
          "name": "owner",
          "type": "address"
        },
        {
          "indexed": true,
          "internalType": "address",
          "name": "approved",
          "type": "address"
        },
        {
          "indexed": true,
          "internalType": "uint256",
          "name": "tokenId",
          "type": "uint256"
        }
      ],
      "name": "Approval",
      "type": "event"
    },
    {
      "anonymous": false,
      "inputs": [
        {
          "indexed": true,
          "internalType": "address",
          "name": "owner",
          "type": "address"
        },
        {
          "indexed": true,
          "internalType": "address",
          "name": "operator",
          "type": "address"
        },
        {
          "indexed": false,
          "internalType": "bool",
          "name": "approved",
          "type": "bool"
        }
      ],
      "name": "ApprovalForAll",
      "type": "event"
    },
    {
      "anonymous": false,
      "inputs": [
        {
          "indexed": true,
          "internalType": "uint256",
          "name": "tokenId",
          "type": "uint256"
        }
      ],
      "name": "BURN",
      "type": "event"
    },
    {
      "anonymous": false,
      "inputs": [
        {
          "indexed": true,
          "internalType": "uint256",
          "name": "tokenId",
          "type": "uint256"
        }
      ],
      "name": "MINT",
      "type": "event"
    },
    {
      "anonymous": false,
      "inputs": [
        {
          "indexed": true,
          "internalType": "bytes32",
          "name": "role",
          "type": "bytes32"
        },
        {
          "indexed": true,
          "internalType": "bytes32",
          "name": "previousAdminRole",
          "type": "bytes32"
        },
        {
          "indexed": true,
          "internalType": "bytes32",
          "name": "newAdminRole",
          "type": "bytes32"
        }
      ],
      "name": "RoleAdminChanged",
      "type": "event"
    },
    {
      "anonymous": false,
      "inputs": [
        {
          "indexed": true,
          "internalType": "bytes32",
          "name": "role",
          "type": "bytes32"
        },
        {
          "indexed": true,
          "internalType": "address",
          "name": "account",
          "type": "address"
        },
        {
          "indexed": true,
          "internalType": "address",
          "name": "sender",
          "type": "address"
        }
      ],
      "name": "RoleGranted",
      "type": "event"
    },
    {
      "anonymous": false,
      "inputs": [
        {
          "indexed": true,
          "internalType": "bytes32",
          "name": "role",
          "type": "bytes32"
        },
        {
          "indexed": true,
          "internalType": "address",
          "name": "account",
          "type": "address"
        },
        {
          "indexed": true,
          "internalType": "address",
          "name": "sender",
          "type": "address"
        }
      ],
      "name": "RoleRevoked",
      "type": "event"
    },
    {
      "anonymous": false,
      "inputs": [
        {
          "indexed": true,
          "internalType": "address",
          "name": "from",
          "type": "address"
        },
        {
          "indexed": true,
          "internalType": "address",
          "name": "to",
          "type": "address"
        },
        {
          "indexed": true,
          "internalType": "uint256",
          "name": "tokenId",
          "type": "uint256"
        }
      ],
      "name": "Transfer",
      "type": "event"
    },
    {
      "inputs": [],
      "name": "DEFAULT_ADMIN_ROLE",
      "outputs": [
        {
          "internalType": "bytes32",
          "name": "",
          "type": "bytes32"
        }
      ],
      "stateMutability": "view",
      "type": "function"
    },
    {
      "inputs": [],
      "name": "MINTER_ROLE",
      "outputs": [
        {
          "internalType": "bytes32",
          "name": "",
          "type": "bytes32"
        }
      ],
      "stateMutability": "view",
      "type": "function"
    },
    {
      "inputs": [
        {
          "internalType": "address",
          "name": "to",
          "type": "address"
        },
        {
          "internalType": "uint256",
          "name": "tokenId",
          "type": "uint256"
        }
      ],
      "name": "approve",
      "outputs": [],
      "stateMutability": "nonpayable",
      "type": "function"
    },
    {
      "inputs": [
        {
          "internalType": "address",
          "name": "owner",
          "type": "address"
        }
      ],
      "name": "balanceOf",
      "outputs": [
        {
          "internalType": "uint256",
          "name": "",
          "type": "uint256"
        }
      ],
      "stateMutability": "view",
      "type": "function"
    },
    {
      "inputs": [
        {
          "internalType": "uint256",
          "name": "tokenId",
          "type": "uint256"
        }
      ],
      "name": "burn",
      "outputs": [],
      "stateMutability": "nonpayable",
      "type": "function"
    },
    {
      "inputs": [
        {
          "internalType": "uint256",
          "name": "tokenId",
          "type": "uint256"
        }
      ],
      "name": "getApproved",
      "outputs": [
        {
          "internalType": "address",
          "name": "",
          "type": "address"
        }
      ],
      "stateMutability": "view",
      "type": "function"
    },
    {
      "inputs": [
        {
          "internalType": "uint256",
          "name": "_tokenId",
          "type": "uint256"
        }
      ],
      "name": "getCreationDate",
      "outputs": [
        {
          "internalType": "uint256",
          "name": "",
          "type": "uint256"
        }
      ],
      "stateMutability": "view",
      "type": "function"
    },
    {
      "inputs": [],
      "name": "getFee",
      "outputs": [
        {
          "internalType": "uint256",
          "name": "",
          "type": "uint256"
        }
      ],
      "stateMutability": "view",
      "type": "function"
    },
    {
      "inputs": [],
      "name": "getPortuDAO_Treasury",
      "outputs": [
        {
          "internalType": "address",
          "name": "",
          "type": "address"
        }
      ],
      "stateMutability": "view",
      "type": "function"
    },
    {
      "inputs": [
        {
          "internalType": "bytes32",
          "name": "role",
          "type": "bytes32"
        }
      ],
      "name": "getRoleAdmin",
      "outputs": [
        {
          "internalType": "bytes32",
          "name": "",
          "type": "bytes32"
        }
      ],
      "stateMutability": "view",
      "type": "function"
    },
    {
      "inputs": [
        {
          "internalType": "bytes32",
          "name": "role",
          "type": "bytes32"
        },
        {
          "internalType": "uint256",
          "name": "index",
          "type": "uint256"
        }
      ],
      "name": "getRoleMember",
      "outputs": [
        {
          "internalType": "address",
          "name": "",
          "type": "address"
        }
      ],
      "stateMutability": "view",
      "type": "function"
    },
    {
      "inputs": [
        {
          "internalType": "bytes32",
          "name": "role",
          "type": "bytes32"
        }
      ],
      "name": "getRoleMemberCount",
      "outputs": [
        {
          "internalType": "uint256",
          "name": "",
          "type": "uint256"
        }
      ],
      "stateMutability": "view",
      "type": "function"
    },
    {
      "inputs": [],
      "name": "getmintEnabled",
      "outputs": [
        {
          "internalType": "bool",
          "name": "",
          "type": "bool"
        }
      ],
      "stateMutability": "view",
      "type": "function"
    },
    {
      "inputs": [
        {
          "internalType": "bytes32",
          "name": "role",
          "type": "bytes32"
        },
        {
          "internalType": "address",
          "name": "account",
          "type": "address"
        }
      ],
      "name": "grantRole",
      "outputs": [],
      "stateMutability": "nonpayable",
      "type": "function"
    },
    {
      "inputs": [
        {
          "internalType": "bytes32",
          "name": "role",
          "type": "bytes32"
        },
        {
          "internalType": "address",
          "name": "account",
          "type": "address"
        }
      ],
      "name": "hasRole",
      "outputs": [
        {
          "internalType": "bool",
          "name": "",
          "type": "bool"
        }
      ],
      "stateMutability": "view",
      "type": "function"
    },
    {
      "inputs": [
        {
          "internalType": "address",
          "name": "owner",
          "type": "address"
        },
        {
          "internalType": "address",
          "name": "operator",
          "type": "address"
        }
      ],
      "name": "isApprovedForAll",
      "outputs": [
        {
          "internalType": "bool",
          "name": "",
          "type": "bool"
        }
      ],
      "stateMutability": "view",
      "type": "function"
    },
    {
      "inputs": [
        {
          "internalType": "address",
          "name": "to",
          "type": "address"
        },
        {
          "internalType": "bytes",
          "name": "_signature",
          "type": "bytes"
        },
        {
          "internalType": "string",
          "name": "_nonce",
          "type": "string"
        }
      ],
      "name": "mint",
      "outputs": [],
      "stateMutability": "nonpayable",
      "type": "function"
    },
    {
      "inputs": [],
      "name": "name",
      "outputs": [
        {
          "internalType": "string",
          "name": "",
          "type": "string"
        }
      ],
      "stateMutability": "view",
      "type": "function"
    },
    {
      "inputs": [
        {
          "internalType": "uint256",
          "name": "tokenId",
          "type": "uint256"
        }
      ],
      "name": "ownerOf",
      "outputs": [
        {
          "internalType": "address",
          "name": "",
          "type": "address"
        }
      ],
      "stateMutability": "view",
      "type": "function"
    },
    {
      "inputs": [
        {
          "internalType": "bytes32",
          "name": "role",
          "type": "bytes32"
        },
        {
          "internalType": "address",
          "name": "account",
          "type": "address"
        }
      ],
      "name": "renounceRole",
      "outputs": [],
      "stateMutability": "nonpayable",
      "type": "function"
    },
    {
      "inputs": [
        {
          "internalType": "bytes32",
          "name": "role",
          "type": "bytes32"
        },
        {
          "internalType": "address",
          "name": "account",
          "type": "address"
        }
      ],
      "name": "revokeRole",
      "outputs": [],
      "stateMutability": "nonpayable",
      "type": "function"
    },
    {
      "inputs": [
        {
          "internalType": "address",
          "name": "from",
          "type": "address"
        },
        {
          "internalType": "address",
          "name": "to",
          "type": "address"
        },
        {
          "internalType": "uint256",
          "name": "tokenId",
          "type": "uint256"
        }
      ],
      "name": "safeTransferFrom",
      "outputs": [],
      "stateMutability": "nonpayable",
      "type": "function"
    },
    {
      "inputs": [
        {
          "internalType": "address",
          "name": "from",
          "type": "address"
        },
        {
          "internalType": "address",
          "name": "to",
          "type": "address"
        },
        {
          "internalType": "uint256",
          "name": "tokenId",
          "type": "uint256"
        },
        {
          "internalType": "bytes",
          "name": "_data",
          "type": "bytes"
        }
      ],
      "name": "safeTransferFrom",
      "outputs": [],
      "stateMutability": "nonpayable",
      "type": "function"
    },
    {
      "inputs": [
        {
          "internalType": "address",
          "name": "operator",
          "type": "address"
        },
        {
          "internalType": "bool",
          "name": "approved",
          "type": "bool"
        }
      ],
      "name": "setApprovalForAll",
      "outputs": [],
      "stateMutability": "nonpayable",
      "type": "function"
    },
    {
      "inputs": [],
      "name": "setMintAbility",
      "outputs": [],
      "stateMutability": "nonpayable",
      "type": "function"
    },
    {
      "inputs": [
        {
          "internalType": "uint256",
          "name": "_fee",
          "type": "uint256"
        }
      ],
      "name": "setPortuDAO_Fee",
      "outputs": [],
      "stateMutability": "nonpayable",
      "type": "function"
    },
    {
      "inputs": [
        {
          "internalType": "address",
          "name": "_PortuDAO_Treasury",
          "type": "address"
        }
      ],
      "name": "setPortuDAO_Treasury",
      "outputs": [],
      "stateMutability": "nonpayable",
      "type": "function"
    },
    {
      "inputs": [
        {
          "internalType": "address",
          "name": "_chargeToken",
          "type": "address"
        }
      ],
      "name": "setPortuDAO_chargeToken",
      "outputs": [],
      "stateMutability": "nonpayable",
      "type": "function"
    },
    {
      "inputs": [
        {
          "internalType": "bytes4",
          "name": "interfaceId",
          "type": "bytes4"
        }
      ],
      "name": "supportsInterface",
      "outputs": [
        {
          "internalType": "bool",
          "name": "",
          "type": "bool"
        }
      ],
      "stateMutability": "view",
      "type": "function"
    },
    {
      "inputs": [],
      "name": "symbol",
      "outputs": [
        {
          "internalType": "string",
          "name": "",
          "type": "string"
        }
      ],
      "stateMutability": "view",
      "type": "function"
    },
    {
      "inputs": [
        {
          "internalType": "uint256",
          "name": "index",
          "type": "uint256"
        }
      ],
      "name": "tokenByIndex",
      "outputs": [
        {
          "internalType": "uint256",
          "name": "",
          "type": "uint256"
        }
      ],
      "stateMutability": "view",
      "type": "function"
    },
    {
      "inputs": [
        {
          "internalType": "address",
          "name": "owner",
          "type": "address"
        },
        {
          "internalType": "uint256",
          "name": "index",
          "type": "uint256"
        }
      ],
      "name": "tokenOfOwnerByIndex",
      "outputs": [
        {
          "internalType": "uint256",
          "name": "",
          "type": "uint256"
        }
      ],
      "stateMutability": "view",
      "type": "function"
    },
    {
      "inputs": [
        {
          "internalType": "uint256",
          "name": "_tokenId",
          "type": "uint256"
        }
      ],
      "name": "tokenURI",
      "outputs": [
        {
          "internalType": "string",
          "name": "",
          "type": "string"
        }
      ],
      "stateMutability": "view",
      "type": "function"
    },
    {
      "inputs": [],
      "name": "totalSupply",
      "outputs": [
        {
          "internalType": "uint256",
          "name": "",
          "type": "uint256"
        }
      ],
      "stateMutability": "view",
      "type": "function"
    },
    {
      "inputs": [
        {
          "internalType": "address",
          "name": "from",
          "type": "address"
        },
        {
          "internalType": "address",
          "name": "to",
          "type": "address"
        },
        {
          "internalType": "uint256",
          "name": "tokenId",
          "type": "uint256"
        }
      ],
      "name": "transferFrom",
      "outputs": [],
      "stateMutability": "nonpayable",
      "type": "function"
    },
    {
      "inputs": [
        {
          "internalType": "bytes",
          "name": "_signature",
          "type": "bytes"
        },
        {
          "internalType": "string",
          "name": "_nonce",
          "type": "string"
        }
      ],
      "name": "validateSignature",
      "outputs": [],
      "stateMutability": "nonpayable",
      "type": "function"
    }
  ],
  "bytecode": "0x60806040523480156200001157600080fd5b506040516200338a3803806200338a8339810160408190526200003491620004c4565b8651879087906200004d90600290602085019062000334565b5080516200006390600390602084019062000334565b5050506001600160a01b038316620000c25760405162461bcd60e51b815260206004820152601c60248201527f4d696e74657220616c6c6f7765722063616e2774206265206e756c6c0000000060448201526064015b60405180910390fd5b6001600160a01b0382166200011a5760405162461bcd60e51b815260206004820152601660248201527f5472656173757279206d7573742062652076616c6964000000000000000000006044820152606401620000b9565b84516200012f90601390602088019062000334565b50600d80546001600160a81b031916851515610100600160a81b031916176101006001600160a01b038681169190910291909117909155600e80546001600160a01b031916918416919091179055600f819055620001966000620001903390565b620001cf565b620001c27f9f2df0fed2c77648de5860a4cc508cd0818c85b8b8a1ab4ceeef8d981c8956a633620001cf565b50505050505050620005da565b620001db8282620001df565b5050565b620001f682826200022260201b620012751760201c565b60008281526001602090815260409091206200021d918390620012f9620002c2821b17901c565b505050565b6000828152602081815260408083206001600160a01b038516845290915290205460ff16620001db576000828152602081815260408083206001600160a01b03851684529091529020805460ff191660011790556200027e3390565b6001600160a01b0316816001600160a01b0316837f2f8788117e7eff1d82e926ec794901d17c78024a50270940304540a733656f0d60405160405180910390a45050565b6000620002d9836001600160a01b038416620002e2565b90505b92915050565b60008181526001830160205260408120546200032b57508154600181810184556000848152602080822090930184905584548482528286019093526040902091909155620002dc565b506000620002dc565b82805462000342906200059d565b90600052602060002090601f016020900481019282620003665760008555620003b1565b82601f106200038157805160ff1916838001178555620003b1565b82800160010185558215620003b1579182015b82811115620003b157825182559160200191906001019062000394565b50620003bf929150620003c3565b5090565b5b80821115620003bf5760008155600101620003c4565b634e487b7160e01b600052604160045260246000fd5b600082601f8301126200040257600080fd5b81516001600160401b03808211156200041f576200041f620003da565b604051601f8301601f19908116603f011681019082821181831017156200044a576200044a620003da565b816040528381526020925086838588010111156200046757600080fd5b600091505b838210156200048b57858201830151818301840152908201906200046c565b838211156200049d5760008385830101525b9695505050505050565b80516001600160a01b0381168114620004bf57600080fd5b919050565b600080600080600080600060e0888a031215620004e057600080fd5b87516001600160401b0380821115620004f857600080fd5b620005068b838c01620003f0565b985060208a01519150808211156200051d57600080fd5b6200052b8b838c01620003f0565b975060408a01519150808211156200054257600080fd5b50620005518a828b01620003f0565b955050606088015180151581146200056857600080fd5b93506200057860808901620004a7565b92506200058860a08901620004a7565b915060c0880151905092959891949750929550565b600181811c90821680620005b257607f821691505b60208210811415620005d457634e487b7160e01b600052602260045260246000fd5b50919050565b612da080620005ea6000396000f3fe608060405234801561001057600080fd5b506004361061021c5760003560e01c80639010d07c11610125578063ca15c873116100ad578063d547741f1161007c578063d547741f14610491578063e495be6c146104a4578063e985e9c5146104b7578063f60d5165146104f3578063fb90746e1461050457600080fd5b8063ca15c8731461043c578063ccda92471461044f578063ced72f8714610462578063d53913931461046a57600080fd5b8063a22cb465116100f4578063a22cb465146103cf578063ad1e7268146103e2578063ae601d95146103f5578063b88d4fde14610415578063c87b56dd1461042957600080fd5b80639010d07c1461039957806391d14854146103ac57806395d89b41146103bf578063a217fddf146103c757600080fd5b80632f745c59116101a85780634f6ccce7116101775780634f6ccce714610345578063605e8093146103585780636352211e1461036057806370a082311461037357806370a6007d1461038657600080fd5b80632f745c591461030c57806336568abe1461031f57806342842e0e146102c357806342966c681461033257600080fd5b8063146a1023116101ef578063146a10231461029e57806318160ddd146102b157806323b872dd146102c3578063248a9ca3146102d65780632f2ff15d146102f957600080fd5b806301ffc9a71461022157806306fdde0314610249578063081812fc1461025e578063095ea7b314610289575b600080fd5b61023461022f3660046126af565b61050f565b60405190151581526020015b60405180910390f35b610251610520565b6040516102409190612731565b61027161026c366004612744565b6105b2565b6040516001600160a01b039091168152602001610240565b61029c610297366004612779565b61063f565b005b61029c6102ac366004612744565b610750565b600a545b604051908152602001610240565b61029c6102d13660046127a3565b505050565b6102b56102e4366004612744565b60009081526020819052604090206001015490565b61029c6103073660046127df565b6107c5565b6102b561031a366004612779565b6107eb565b61029c61032d3660046127df565b610881565b61029c610340366004612744565b6108ff565b6102b5610353366004612744565b61097a565b61029c610a0d565b61027161036e366004612744565b610a48565b6102b561038136600461280b565b610abf565b61029c61039436600461280b565b610b46565b6102716103a7366004612826565b610bde565b6102346103ba3660046127df565b610bfd565b610251610c26565b6102b5600081565b61029c6103dd366004612856565b610c35565b61029c6103f0366004612930565b610c40565b6102b5610403366004612744565b60009081526011602052604090205490565b61029c6104233660046129a4565b50505050565b610251610437366004612744565b610f8a565b6102b561044a366004612744565b610f95565b61029c61045d36600461280b565b610fac565b600f546102b5565b6102b57f9f2df0fed2c77648de5860a4cc508cd0818c85b8b8a1ab4ceeef8d981c8956a681565b61029c61049f3660046127df565b611051565b61029c6104b2366004612a0c565b611077565b6102346104c5366004612a70565b6001600160a01b03918216600090815260076020908152604080832093909416825291909152205460ff1690565b600e546001600160a01b0316610271565b600d5460ff16610234565b600061051a8261130e565b92915050565b60606002805461052f90612a9a565b80601f016020809104026020016040519081016040528092919081815260200182805461055b90612a9a565b80156105a85780601f1061057d576101008083540402835291602001916105a8565b820191906000526020600020905b81548152906001019060200180831161058b57829003601f168201915b5050505050905090565b60006105bd82611333565b6106235760405162461bcd60e51b815260206004820152602c60248201527f4552433732313a20617070726f76656420717565727920666f72206e6f6e657860448201526b34b9ba32b73a103a37b5b2b760a11b60648201526084015b60405180910390fd5b506000908152600660205260409020546001600160a01b031690565b600061064a82610a48565b9050806001600160a01b0316836001600160a01b031614156106b85760405162461bcd60e51b815260206004820152602160248201527f4552433732313a20617070726f76616c20746f2063757272656e74206f776e656044820152603960f91b606482015260840161061a565b336001600160a01b03821614806106d457506106d481336104c5565b6107465760405162461bcd60e51b815260206004820152603860248201527f4552433732313a20617070726f76652063616c6c6572206973206e6f74206f7760448201527f6e6572206e6f7220617070726f76656420666f7220616c6c0000000000000000606482015260840161061a565b6102d18383611350565b61075b600033610bfd565b6107775760405162461bcd60e51b815260040161061a90612ad5565b600081116107c05760405162461bcd60e51b8152602060048201526016602482015275151c99585cdd5c9e4818d85b89dd081899481b9d5b1b60521b604482015260640161061a565b600f55565b6000828152602081905260409020600101546107e181336113be565b6102d18383611422565b60006107f683610abf565b82106108585760405162461bcd60e51b815260206004820152602b60248201527f455243373231456e756d657261626c653a206f776e657220696e646578206f7560448201526a74206f6620626f756e647360a81b606482015260840161061a565b506001600160a01b03919091166000908152600860209081526040808320938352929052205490565b6001600160a01b03811633146108f15760405162461bcd60e51b815260206004820152602f60248201527f416363657373436f6e74726f6c3a2063616e206f6e6c792072656e6f756e636560448201526e103937b632b9903337b91039b2b63360891b606482015260840161061a565b6108fb8282611444565b5050565b6109093382611466565b61096e5760405162461bcd60e51b815260206004820152603060248201527f4552433732314275726e61626c653a2063616c6c6572206973206e6f74206f7760448201526f1b995c881b9bdc88185c1c1c9bdd995960821b606482015260840161061a565b61097781611550565b50565b6000610985600a5490565b82106109e85760405162461bcd60e51b815260206004820152602c60248201527f455243373231456e756d657261626c653a20676c6f62616c20696e646578206f60448201526b7574206f6620626f756e647360a01b606482015260840161061a565b600a82815481106109fb576109fb612b02565b90600052602060002001549050919050565b610a18600033610bfd565b610a345760405162461bcd60e51b815260040161061a90612ad5565b600d805460ff19811660ff90911615179055565b6000818152600460205260408120546001600160a01b03168061051a5760405162461bcd60e51b815260206004820152602960248201527f4552433732313a206f776e657220717565727920666f72206e6f6e657869737460448201526832b73a103a37b5b2b760b91b606482015260840161061a565b60006001600160a01b038216610b2a5760405162461bcd60e51b815260206004820152602a60248201527f4552433732313a2062616c616e636520717565727920666f7220746865207a65604482015269726f206164647265737360b01b606482015260840161061a565b506001600160a01b031660009081526005602052604090205490565b610b51600033610bfd565b610b6d5760405162461bcd60e51b815260040161061a90612ad5565b6001600160a01b038116610bbc5760405162461bcd60e51b8152602060048201526016602482015275151c99585cdd5c9e4818d85b89dd081899481b9d5b1b60521b604482015260640161061a565b600e80546001600160a01b0319166001600160a01b0392909216919091179055565b6000828152600160205260408120610bf69083611559565b9392505050565b6000918252602082815260408084206001600160a01b0393909316845291905290205460ff1690565b60606003805461052f90612a9a565b6108fb338383611565565b600d5460ff16610c845760405162461bcd60e51b815260206004820152600f60248201526e10dbdb9d1c9858dd0814185d5cd959608a1b604482015260640161061a565b6000610c8f84610abf565b90508015610cd85760405162461bcd60e51b8152602060048201526016602482015275596f7520616c726561647920626f75676874206f6e6560501b604482015260640161061a565b6040516339256f9b60e21b8152309063e495be6c90610cfd9086908690600401612b18565b600060405180830381600087803b158015610d1757600080fd5b505af1158015610d2b573d6000803e3d6000fd5b5050600d54604051636eb1769f60e11b8152336004820152306024820152600093506101009091046001600160a01b0316915063dd62ed3e9060440160206040518083038186803b158015610d7f57600080fd5b505afa158015610d93573d6000803e3d6000fd5b505050506040513d601f19601f82011682018060405250810190610db79190612b46565b9050600f54811015610e0b5760405162461bcd60e51b815260206004820152601760248201527f416c6c6f77616e6365206973206e6f7420656e6f756768000000000000000000604482015260640161061a565b600d54600e54600f546040516323b872dd60e01b81523360048201526001600160a01b03928316602482015260448101919091526000926101009004909116906323b872dd90606401602060405180830381600087803b158015610e6e57600080fd5b505af1158015610e82573d6000803e3d6000fd5b505050506040513d601f19601f82011682018060405250810190610ea69190612b5f565b905080610eed5760405162461bcd60e51b8152602060048201526015602482015274151bdad95b88151c985b9cd9995c8811985a5b1959605a1b604482015260640161061a565b610eff86610efa60125490565b611634565b610f29610f0b60125490565b6040518060600160405280602e8152602001612d3d602e9139611773565b4260116000610f3760125490565b81526020810191909152604001600020556012546040517f655433208e80147d2cbbe0379ba1144b0b1151a26584f5c34f59a1d7aa721ddc90600090a2610f82601280546001019055565b505050505050565b606061051a826117fe565b600081815260016020526040812061051a90611960565b610fb7600033610bfd565b610fd35760405162461bcd60e51b815260040161061a90612ad5565b6001600160a01b0381166110295760405162461bcd60e51b815260206004820152601a60248201527f43686172676520546f6b656e2063616e2774206265206e756c6c000000000000604482015260640161061a565b600d80546001600160a01b0390921661010002610100600160a81b0319909216919091179055565b60008281526020819052604090206001015461106d81336113be565b6102d18383611444565b60008160405160200161108a9190612b7c565b6040516020818303038152906040528051906020012090506110ab8161196a565b6110cf6040518060400160405280600381526020016273737360e81b8152506119af565b6000611128826040517f19457468657265756d205369676e6564204d6573736167653a0a3332000000006020820152603c8101829052600090605c01604051602081830303815290604052805190602001209050919050565b9050600061113682866119f2565b905061114181611a16565b61116b7f9f2df0fed2c77648de5860a4cc508cd0818c85b8b8a1ab4ceeef8d981c8956a682610bfd565b6111b75760405162461bcd60e51b815260206004820152601f60248201527f4d657373616765206e6f74206372656174656420627920506f72747544414f00604482015260640161061a565b6010846040516111c79190612b7c565b9081526040519081900360200190205460ff161561123c5760405162461bcd60e51b815260206004820152602c60248201527f54686973206e6f6e6365207761732075736564206f6e20612070726576696f7560448201526b1cc819195c1b1bde5b595b9d60a21b606482015260840161061a565b600160108560405161124e9190612b7c565b908152604051908190036020019020805491151560ff199092169190911790555050505050565b61127f8282610bfd565b6108fb576000828152602081815260408083206001600160a01b03851684529091529020805460ff191660011790556112b53390565b6001600160a01b0316816001600160a01b0316837f2f8788117e7eff1d82e926ec794901d17c78024a50270940304540a733656f0d60405160405180910390a45050565b6000610bf6836001600160a01b038416611a5e565b60006001600160e01b0319821663780e9d6360e01b148061051a575061051a82611aad565b6000908152600460205260409020546001600160a01b0316151590565b600081815260066020526040902080546001600160a01b0319166001600160a01b038416908117909155819061138582610a48565b6001600160a01b03167f8c5be1e5ebec7d5bd14f71427d1e84f3dd0314c0f7b2291e5b200ac8c7c3b92560405160405180910390a45050565b6113c88282610bfd565b6108fb576113e0816001600160a01b03166014611aed565b6113eb836020611aed565b6040516020016113fc929190612b98565b60408051601f198184030181529082905262461bcd60e51b825261061a91600401612731565b61142c8282611275565b60008281526001602052604090206102d190826112f9565b61144e8282611c89565b60008281526001602052604090206102d19082611cee565b600061147182611333565b6114d25760405162461bcd60e51b815260206004820152602c60248201527f4552433732313a206f70657261746f7220717565727920666f72206e6f6e657860448201526b34b9ba32b73a103a37b5b2b760a11b606482015260840161061a565b60006114dd83610a48565b9050806001600160a01b0316846001600160a01b031614806115185750836001600160a01b031661150d846105b2565b6001600160a01b0316145b8061154857506001600160a01b0380821660009081526007602090815260408083209388168352929052205460ff165b949350505050565b61097781611550565b6000610bf68383611d03565b816001600160a01b0316836001600160a01b031614156115c75760405162461bcd60e51b815260206004820152601960248201527f4552433732313a20617070726f766520746f2063616c6c657200000000000000604482015260640161061a565b6001600160a01b03838116600081815260076020908152604080832094871680845294825291829020805460ff191686151590811790915591519182527f17307eab39ab6107e8899845ad3d59bd9653f200f220920489ca2b5937696c31910160405180910390a3505050565b6001600160a01b03821661168a5760405162461bcd60e51b815260206004820181905260248201527f4552433732313a206d696e7420746f20746865207a65726f2061646472657373604482015260640161061a565b61169381611333565b156116e05760405162461bcd60e51b815260206004820152601c60248201527f4552433732313a20746f6b656e20616c7265616479206d696e74656400000000604482015260640161061a565b6116ec60008383611d2d565b6001600160a01b0382166000908152600560205260408120805460019290611715908490612c23565b909155505060008181526004602052604080822080546001600160a01b0319166001600160a01b03861690811790915590518392907fddf252ad1be2c89b69c2b068fc378daa952ba7f163c4a11628f55a4df523b3ef908290a45050565b61177c82611333565b6117df5760405162461bcd60e51b815260206004820152602e60248201527f45524337323155524953746f726167653a2055524920736574206f66206e6f6e60448201526d32bc34b9ba32b73a103a37b5b2b760911b606482015260840161061a565b6000828152600c6020908152604090912082516102d192840190612616565b606061180982611333565b61186f5760405162461bcd60e51b815260206004820152603160248201527f45524337323155524953746f726167653a2055524920717565727920666f72206044820152703737b732bc34b9ba32b73a103a37b5b2b760791b606482015260840161061a565b6000828152600c60205260408120805461188890612a9a565b80601f01602080910402602001604051908101604052809291908181526020018280546118b490612a9a565b80156119015780601f106118d657610100808354040283529160200191611901565b820191906000526020600020905b8154815290600101906020018083116118e457829003601f168201915b505050505090506000611912611d38565b9050805160001415611925575092915050565b81511561195757808260405160200161193f929190612c3b565b60405160208183030381529060405292505050919050565b61154884611d47565b600061051a825490565b6109778160405160240161198091815260200190565b60408051601f198184030181529190526020810180516001600160e01b03166327b7cf8560e01b179052611e11565b610977816040516024016119c39190612731565b60408051601f198184030181529190526020810180516001600160e01b031663104c13eb60e21b179052611e11565b6000806000611a018585611e32565b91509150611a0e81611ea2565b509392505050565b6040516001600160a01b03821660248201526109779060440160408051601f198184030181529190526020810180516001600160e01b031663161765e160e11b179052611e11565b6000818152600183016020526040812054611aa55750815460018181018455600084815260208082209093018490558454848252828601909352604090209190915561051a565b50600061051a565b60006001600160e01b031982166380ac58cd60e01b1480611ade57506001600160e01b03198216635b5e139f60e01b145b8061051a575061051a8261205d565b60606000611afc836002612c6a565b611b07906002612c23565b67ffffffffffffffff811115611b1f57611b1f61288d565b6040519080825280601f01601f191660200182016040528015611b49576020820181803683370190505b509050600360fc1b81600081518110611b6457611b64612b02565b60200101906001600160f81b031916908160001a905350600f60fb1b81600181518110611b9357611b93612b02565b60200101906001600160f81b031916908160001a9053506000611bb7846002612c6a565b611bc2906001612c23565b90505b6001811115611c3a576f181899199a1a9b1b9c1cb0b131b232b360811b85600f1660108110611bf657611bf6612b02565b1a60f81b828281518110611c0c57611c0c612b02565b60200101906001600160f81b031916908160001a90535060049490941c93611c3381612c89565b9050611bc5565b508315610bf65760405162461bcd60e51b815260206004820181905260248201527f537472696e67733a20686578206c656e67746820696e73756666696369656e74604482015260640161061a565b611c938282610bfd565b156108fb576000828152602081815260408083206001600160a01b0385168085529252808320805460ff1916905551339285917ff6391f5c32d9c69d2a47ea670b442974b53935d1edc7fd64eb21e047a839171b9190a45050565b6000610bf6836001600160a01b038416612082565b6000826000018281548110611d1a57611d1a612b02565b9060005260206000200154905092915050565b6102d1838383612175565b60606013805461052f90612a9a565b6060611d5282611333565b611db65760405162461bcd60e51b815260206004820152602f60248201527f4552433732314d657461646174613a2055524920717565727920666f72206e6f60448201526e3732bc34b9ba32b73a103a37b5b2b760891b606482015260840161061a565b6000611dc0611d38565b90506000815111611de05760405180602001604052806000815250610bf6565b80611dea8461222d565b604051602001611dfb929190612c3b565b6040516020818303038152906040529392505050565b80516a636f6e736f6c652e6c6f67602083016000808483855afa5050505050565b600080825160411415611e695760208301516040840151606085015160001a611e5d8782858561232b565b94509450505050611e9b565b825160401415611e935760208301516040840151611e88868383612418565b935093505050611e9b565b506000905060025b9250929050565b6000816004811115611eb657611eb6612ca0565b1415611ebf5750565b6001816004811115611ed357611ed3612ca0565b1415611f215760405162461bcd60e51b815260206004820152601860248201527f45434453413a20696e76616c6964207369676e61747572650000000000000000604482015260640161061a565b6002816004811115611f3557611f35612ca0565b1415611f835760405162461bcd60e51b815260206004820152601f60248201527f45434453413a20696e76616c6964207369676e6174757265206c656e67746800604482015260640161061a565b6003816004811115611f9757611f97612ca0565b1415611ff05760405162461bcd60e51b815260206004820152602260248201527f45434453413a20696e76616c6964207369676e6174757265202773272076616c604482015261756560f01b606482015260840161061a565b600481600481111561200457612004612ca0565b14156109775760405162461bcd60e51b815260206004820152602260248201527f45434453413a20696e76616c6964207369676e6174757265202776272076616c604482015261756560f01b606482015260840161061a565b60006001600160e01b03198216635a05180f60e01b148061051a575061051a82612451565b6000818152600183016020526040812054801561216b5760006120a6600183612cb6565b85549091506000906120ba90600190612cb6565b905081811461211f5760008660000182815481106120da576120da612b02565b90600052602060002001549050808760000184815481106120fd576120fd612b02565b6000918252602080832090910192909255918252600188019052604090208390555b855486908061213057612130612ccd565b60019003818190600052602060002001600090559055856001016000868152602001908152602001600020600090556001935050505061051a565b600091505061051a565b6001600160a01b0383166121d0576121cb81600a80546000838152600b60205260408120829055600182018355919091527fc65a7bb8d6351c1cf70c95a316cc6a92839c986682d98bc35f958f4883f9d2a80155565b6121f3565b816001600160a01b0316836001600160a01b0316146121f3576121f38382612486565b6001600160a01b03821661220a576102d181612523565b826001600160a01b0316826001600160a01b0316146102d1576102d182826125d2565b6060816122515750506040805180820190915260018152600360fc1b602082015290565b8160005b811561227b578061226581612ce3565b91506122749050600a83612d14565b9150612255565b60008167ffffffffffffffff8111156122965761229661288d565b6040519080825280601f01601f1916602001820160405280156122c0576020820181803683370190505b5090505b8415611548576122d5600183612cb6565b91506122e2600a86612d28565b6122ed906030612c23565b60f81b81838151811061230257612302612b02565b60200101906001600160f81b031916908160001a905350612324600a86612d14565b94506122c4565b6000807f7fffffffffffffffffffffffffffffff5d576e7357a4501ddfe92f46681b20a0831115612362575060009050600361240f565b8460ff16601b1415801561237a57508460ff16601c14155b1561238b575060009050600461240f565b6040805160008082526020820180845289905260ff881692820192909252606081018690526080810185905260019060a0016020604051602081039080840390855afa1580156123df573d6000803e3d6000fd5b5050604051601f1901519150506001600160a01b0381166124085760006001925092505061240f565b9150600090505b94509492505050565b6000806001600160ff1b0383168161243560ff86901c601b612c23565b90506124438782888561232b565b935093505050935093915050565b60006001600160e01b03198216637965db0b60e01b148061051a57506301ffc9a760e01b6001600160e01b031983161461051a565b6000600161249384610abf565b61249d9190612cb6565b6000838152600960205260409020549091508082146124f0576001600160a01b03841660009081526008602090815260408083208584528252808320548484528184208190558352600990915290208190555b5060009182526009602090815260408084208490556001600160a01b039094168352600881528383209183525290812055565b600a5460009061253590600190612cb6565b6000838152600b6020526040812054600a805493945090928490811061255d5761255d612b02565b9060005260206000200154905080600a838154811061257e5761257e612b02565b6000918252602080832090910192909255828152600b9091526040808220849055858252812055600a8054806125b6576125b6612ccd565b6001900381819060005260206000200160009055905550505050565b60006125dd83610abf565b6001600160a01b039093166000908152600860209081526040808320868452825280832085905593825260099052919091209190915550565b82805461262290612a9a565b90600052602060002090601f016020900481019282612644576000855561268a565b82601f1061265d57805160ff191683800117855561268a565b8280016001018555821561268a579182015b8281111561268a57825182559160200191906001019061266f565b5061269692915061269a565b5090565b5b80821115612696576000815560010161269b565b6000602082840312156126c157600080fd5b81356001600160e01b031981168114610bf657600080fd5b60005b838110156126f45781810151838201526020016126dc565b838111156104235750506000910152565b6000815180845261271d8160208601602086016126d9565b601f01601f19169290920160200192915050565b602081526000610bf66020830184612705565b60006020828403121561275657600080fd5b5035919050565b80356001600160a01b038116811461277457600080fd5b919050565b6000806040838503121561278c57600080fd5b6127958361275d565b946020939093013593505050565b6000806000606084860312156127b857600080fd5b6127c18461275d565b92506127cf6020850161275d565b9150604084013590509250925092565b600080604083850312156127f257600080fd5b823591506128026020840161275d565b90509250929050565b60006020828403121561281d57600080fd5b610bf68261275d565b6000806040838503121561283957600080fd5b50508035926020909101359150565b801515811461097757600080fd5b6000806040838503121561286957600080fd5b6128728361275d565b9150602083013561288281612848565b809150509250929050565b634e487b7160e01b600052604160045260246000fd5b600082601f8301126128b457600080fd5b813567ffffffffffffffff808211156128cf576128cf61288d565b604051601f8301601f19908116603f011681019082821181831017156128f7576128f761288d565b8160405283815286602085880101111561291057600080fd5b836020870160208301376000602085830101528094505050505092915050565b60008060006060848603121561294557600080fd5b61294e8461275d565b9250602084013567ffffffffffffffff8082111561296b57600080fd5b612977878388016128a3565b9350604086013591508082111561298d57600080fd5b5061299a868287016128a3565b9150509250925092565b600080600080608085870312156129ba57600080fd5b6129c38561275d565b93506129d16020860161275d565b925060408501359150606085013567ffffffffffffffff8111156129f457600080fd5b612a00878288016128a3565b91505092959194509250565b60008060408385031215612a1f57600080fd5b823567ffffffffffffffff80821115612a3757600080fd5b612a43868387016128a3565b93506020850135915080821115612a5957600080fd5b50612a66858286016128a3565b9150509250929050565b60008060408385031215612a8357600080fd5b612a8c8361275d565b91506128026020840161275d565b600181811c90821680612aae57607f821691505b60208210811415612acf57634e487b7160e01b600052602260045260246000fd5b50919050565b60208082526013908201527226bab9ba103430bb32902220a79030b236b4b760691b604082015260600190565b634e487b7160e01b600052603260045260246000fd5b604081526000612b2b6040830185612705565b8281036020840152612b3d8185612705565b95945050505050565b600060208284031215612b5857600080fd5b5051919050565b600060208284031215612b7157600080fd5b8151610bf681612848565b60008251612b8e8184602087016126d9565b9190910192915050565b7f416363657373436f6e74726f6c3a206163636f756e7420000000000000000000815260008351612bd08160178501602088016126d9565b7001034b99036b4b9b9b4b733903937b6329607d1b6017918401918201528351612c018160288401602088016126d9565b01602801949350505050565b634e487b7160e01b600052601160045260246000fd5b60008219821115612c3657612c36612c0d565b500190565b60008351612c4d8184602088016126d9565b835190830190612c618183602088016126d9565b01949350505050565b6000816000190483118215151615612c8457612c84612c0d565b500290565b600081612c9857612c98612c0d565b506000190190565b634e487b7160e01b600052602160045260246000fd5b600082821015612cc857612cc8612c0d565b500390565b634e487b7160e01b600052603160045260246000fd5b6000600019821415612cf757612cf7612c0d565b5060010190565b634e487b7160e01b600052601260045260246000fd5b600082612d2357612d23612cfe565b500490565b600082612d3757612d37612cfe565b50069056fe516d646a4c4c3776317a395859676b4d43716f4b5343314659716b67444c325252506b644838363237345a635471a2646970667358221220ab0f255b87fdb78873d5c4309ff901d9dd4edce5621a96175250c9e865db703764736f6c63430008090033",
  "linkReferences": {},
  "deployedLinkReferences": {}
}